:100000000C943E000C9450000C9450000C94500042
:100010000C9450000C9450000C9450000C94500020
:100020000C9450000C9450000C9450000C94500010
:100030000C94CE000C9450000C9450000C94500082
:100040000C9450000C9450000C9450000C945000F0
:100050000C946F030C9450000C9450000C945000BE
:100060000C9450000C9450000C9450000C945000D0
:100070000C9450000C9450000C94500011241FBE9E
:10008000CFEFD8E0DEBFCDBF23E0A0E0B1E001C0FC
:100090001D92AF30B207E1F70E9466000C94F203A4
:1000A0000C940000813019F0823031F0089595B140
:1000B00080E4892785B908959BB181E089278BB9B0
:1000C0000895269A509A539A54980895E1E6F0E0DC
:1000D00080E8808310820E9461000E94DD000E94FF
:1000E000990078940E94E1010E94F60282E00E9449
:1000F000520084E690E00E94F70082E00E945200E5
:1001000084E690E00E94F70080910303882371F356
:1001100081E00E94520084E690E00E94F70081E0B6
:100120000E94520084E690E00E94F70010920303C0
:10013000DDCF85B78F7785BF83E58CBD08958EBDF4
:100140000DB407FC04C089EE8150F1F708958AE0F0
:100150000E940D018EB5089581E090E00E94E500B7
:100160000895CF935B988EBD0DB407FC06C0C9EE11
:10017000C150F1F70E94AC0009C087E00E940D0158
:100180000E94AC008AE00E940D01CEB58C2FCF9169
:10019000089581E090E00E94E50008951F920F927B
:1001A0000FB60F9211248F9381E0809305038F91F6
:1001B0000F900FBE0F901F90189510926F00109225
:1001C00080008AE0809381000895109205031092C8
:1001D000850010928400909389008093880082E0CB
:1001E00080936F00809105038823E1F308950F93B6
:1001F0001F93CF93DF938C01009751F0C0E0D0E0C4
:1002000088EE93E00E94E5002196C017D107C1F760
:10021000DF91CF911F910F910895882321F090E0F5
:100220009F5F9813FDCF0895CF93C82F0E94C900F8
:1002300080E88C0F0E949F0081E090E00E94E50022
:1002400080E00E949F00C82F0E94AC0081E090E0F7
:100250000E94F7008C2FCF910895CF93DF93D82F72
:10026000C62F0E94C9008D2F0E949F0081E090E060
:100270000E94E5008C2F0E949F000E94AC0081E04C
:1002800090E00E94F700DF91CF910895CF93C82F9F
:100290000E94C9008FEA0E949F0081E090E00E94C6
:1002A000E5008C2F0E949F0081E090E00E94E50015
:1002B00080E00E949F00C82F0E94AC0081E090E087
:1002C0000E94F7008C2FCF910895CF930E94B10028
:1002D000C82F81E090E00E94E5008C2FCF91089517
:1002E000CF93DF93D82FC62F8DE30E9465010E9424
:1002F000C9008FE20E949F0081E090E00E94E5002B
:100300008D2F0E949F0081E090E00E94E5008C2FDD
:100310000E949F000E94AC0081E090E00E94F700E4
:10032000DF91CF9108951F93CF93DF93C82FD62FDE
:10033000142F0E94140111110CC0E1E0F0E0AF0194
:1003400002C0440F551FDA95E2F74095682F6423E9
:100350000AC041E050E09A0102C0220F331FDA9533
:10036000E2F7682F622B8C2F0E942D01DF91CF9135
:100370001F9108951F93CF93DF93C82FD62F142F6B
:100380000E94460111110CC0E1E0F0E0AF0102C093
:10039000440F551FDA95E2F74095682F64230AC091
:1003A00041E050E09A0102C0220F331FDA95E2F7D4
:1003B000682F622B8C2F0E947001DF91CF911F91CB
:1003C00008950E94C90080E30E9465018AE30E94AB
:1003D00065018BE30E94650160E082E10E9470018B
:1003E0006FE583E10E94700160E486E10E94700184
:1003F0006EE087E10E94700163E089E10E94700174
:1004000063E38BE10E94700167E18DE10E9470015E
:1004100060E58FE10E94700164E181E20E94700159
:100420006CEA82E20E9470018DE30E9465016BE03C
:1004300088E00E942D016DE083E10E942D0164E0BF
:1004400086E20E942D016BE088E00E942D016CE1A4
:100450008CE00E942D0160E080E10E942D0164E0AB
:1004600081E10E942D0165E083E10E942D0169EA8E
:100470008CE10E942D016FEC8DE10E942D0160E066
:100480008EE10E942D0163E080E20E942D0160E078
:100490008EE20E942D0160E080E00E94700168E41D
:1004A0008AE00E942D0165E08BE00E942D0164E04E
:1004B00081E20E942D0160E08DE00E942D0140E06C
:1004C00065E08EE00E94930140E067E082E00E94D8
:1004D000BA0140E066E082E00E94BA0140E066E0D6
:1004E00088E00E94930167E189E00E942D0160E0AD
:1004F00086E20E942D016FEF8EE20E942D018DE3B6
:100500000E9465016CE68CE00E94700160E88DE05D
:100510000E94700183E30E9465018AEF90E00E94CF
:10052000F70087E30E9465018AEF90E00E94F700E0
:100530001092080384E30E9465010895CF92DF9230
:10054000EF92FF920F931F93CF93DF93C82EDD247A
:10055000D3940F2EFCE1EF2EF02D0F2EFEE4FF2E94
:10056000F02D0EE010E0D0E0C0E0B0E0E9ECF0E00B
:10057000A081A4FF17C02D2D3E2D4F2D502F612F90
:100580007D2F8C2F9B2FAFEF0E94DA03D22EE32E0C
:10059000F42E052F162FD72FC82FB92FA0E00E94B9
:1005A000E60331F7C092D20080E0DF91CF911F9136
:1005B0000F91FF90EF90DF90CF90089580E090E052
:1005C000FC01EE5FFE4F108201968F3F9105C1F74F
:1005D000109200030895E1E0F2E080E093E01192D0
:1005E000E817F907E1F7109206030895E8ECF0E048
:1005F00080E880831092CE0083E38093CD0080E971
:100600008093CC008FE0808381E08093CA00809348
:10061000C9000E94DE020E94EB02109204031092B5
:10062000030378940895EF92FF920F931F93CF9353
:10063000DF93CDB7DEB7A3970FB6F894DEBF0FBE3A
:10064000CDBF82E489838CE48A8389E48B838EE442
:100650008C838BE48D83FE013196A1E0B2E0CE0164
:10066000069641E050E031912D913213452FE81765
:10067000F907C9F7442321F18AE08A8F8DE08B8F37
:1006800082E48C8F8CE48D8F99E49E8F8EE48F8F23
:100690002BE428A399A38AA387E48BA38E01065E8B
:1006A0001F4F7E0187E2E80EF11CF80181918F0156
:1006B0000E949E020E151F05C1F781E0809303037F
:1006C0000E94EB02A3960FB6F894DEBF0FBECDBF1B
:1006D000DF91CF911F910F91FF90EF9008951F929E
:1006E0000F920FB60F9211242F933F934F935F9366
:1006F0006F937F938F939F93AF93BF93CF93EF931A
:10070000FF93C091D2009091010181E09F3F09F0D9
:1007100080E080930001C233F1F4109204038091D1
:100720000101882381F020E0822F90E0FC01EE5F40
:10073000FE4F3081FC01EF5FFD4F30832F5F8091D2
:100740000101281788F380910003809306030E941B
:10075000DE020E94130380910403882391F0E0914C
:100760000101F0E0EE5FFE4FC083809101018E3FFA
:1007700019F40E94DE020CC0809101018F5F80930A
:100780000101C13329F481E0809304030E94DE0259
:10079000FF91EF91CF91BF91AF919F918F917F91F9
:1007A0006F915F914F913F912F910F900FBE0F90DE
:1007B0001F9018950024A7FD00942A0F301D401D9E
:1007C000501D601D701D801D901D08950024A7FD03
:1007D00000942A1730054005500560057005800516
:0807E00090050895F894FFCF85
:00000001FF
