:100000000C945A000C9477000C9477000C947700B1
:100010000C9477000C9477000C9477000C94770084
:100020000C9477000C9477000C9477000C94770074
:100030000C9477000C9477000C9477000C94770064
:100040000C9477000C9477000C9477000C94770054
:100050000C94FE070C9477000C9477000C947700B6
:100060000C9477000C9477000C9477000C94770034
:100070000C94F2080C9477000C947700D302D80209
:10008000DD02E202E702EC02F102F602FB020003EB
:1000900005030A030F03140395079A079F07A40794
:1000A000A907AE07B307B8076364696E6F7073750D
:1000B00078585B0011241FBECFEFD8E0DEBFCDBF64
:1000C00013E0A0E0B1E0E2E7FFE102C005900D928D
:1000D000AA3FB107D9F726E0AAEFB3E001C01D920D
:1000E000A530B207E1F70E94CE010C94B70F0C9433
:1000F0000000269A509A389A0895823049F0833049
:1001000061F0813071F495B180E4892785B9089553
:100110009BB181E089278BB9089598B181E0892747
:1001200088B90895AF92BF92CF92DF92EF92FF927B
:100130000F931F93CF93DF93CDB7DEB7C150D1405C
:100140000FB6F894DEBF0FBECDBF809100048823A8
:1001500009F412C18091000480910104813209F4F4
:10016000E6C010E008C0E12FF0E0EF5FFB4F8081B8
:10017000813209F4DDC01F5F80910004811798F778
:10018000FBC080E00E9496062FEF31E02E193F0958
:10019000121613060CF4AFC0C3C0CE018F5F9E4F82
:1001A0009F938F939A959F938F9380589F4F9F9380
:1001B0008F9381E091E09F938F9381E094E09F93F0
:1001C0008F930E94A1095C010FB6F894DEBF0FBEA9
:1001D000CDBF92E0A916B1040CF484C068E171E0CF
:1001E000CE018F579F4F0E947609892B69F5A2E0B7
:1001F000AA16B10469F1FE013196DF010D900020CD
:10020000E9F71197CD018E1B9F0BEFEFFFEFEC0F7E
:10021000FD1FE80FF91F20812435F9F4FE01E80FD6
:10022000F91F20812F34E9F4EEEFFFEFEC0FFD1FF3
:10023000E80FF91F1082CF5FDE4F0881C150D14017
:10024000FE0131966F0110C000E0C12CD12C0CC012
:100250000FEFCE0101966C0107C000E0C12CD12C3C
:1002600003C000E0C12CD12CD6018C918823A9F1C8
:10027000F60101900020E9F73197EC19FD09EE37FE
:10028000F10558F58DE191E00E947608C6010E94C3
:10029000760882E20E943608B3E0AB16B10464F03F
:1002A0001F920F938CE291E09F938F930E949C0882
:1002B0000F900F900F900F908CE391E00E947608C2
:1002C000F60101900020E9F73197AF014C195D0963
:1002D000602FC6010E94F70657CF82E491E00E948A
:1002E000760852CF82E691E09F938F930E949C08FC
:1002F0000F900F9049CF80E090E0412F50E04F5F8A
:100300005F4FFA01E80FF91FEF5FFB4F6081DC01DF
:10031000AF5FBB4F6C93108201968217930789F7EA
:10032000809100048150811B8093000425C010E05F
:10033000E12EF12CF701EF5FFB4F1082FE01EF572A
:10034000FF4F80E8DF01982F1D929A95E9F7E0585A
:10035000F109DF011D928A95E9F7CF5FDE4F188220
:10036000C150D14061E074E08AE791E00E947609D3
:10037000892B09F406CF11CFCF5FDE4F0FB6F8946B
:10038000DEBF0FBECDBFDF91CF911F910F91FF90C8
:10039000EF90DF90CF90BF90AF900895E1E6F0E04E
:1003A0008081806880831082F8940E94E3080E9414
:1003B00044020E941F0878942FEF80E792E02150BA
:1003C00080409040E1F700C0000080E891E00E948A
:1003D00076080E94790081E00E947D0089E991E021
:1003E0000E94760881E00E94960687EB91E00E94C9
:1003F0007608C12CD12C76010E9492000E948803BD
:100400008091010690910206A0910306B091040626
:10041000880F991FAA1FBB1F880F991FAA1FBB1FF8
:10042000880F991FAA1FBB1F880F991FAA1FBB1FE8
:100430008C199D09AE09BF09883E9340A105B105FD
:10044000DCF282E00E947D0081E00E947D000E943B
:100450006107C0900106D0900206E0900306F0907C
:100460000406CC0CDD1CEE1CFF1CCC0CDD1CEE1CB1
:10047000FF1CCC0CDD1CEE1CFF1CCC0CDD1CEE1C90
:10048000FF1C0E94CE08B8CF84B1826884B920983E
:1004900080E58CBD08958EBD08C00DB406FE05C074
:1004A00085ED91E00E94760803C00DB407FEF5CFFC
:1004B0008EE18A95F1F78EB5089582E08A95F1F77D
:1004C00000C0089582E08A95F1F700C00895CF93A7
:1004D000C82F0E94620280E88C0F0E944B0282E0CB
:1004E0008A95F1F700C080E00E944B02C82F0E945D
:1004F0005D028FEC97E00197F1F700C000008C2FB0
:10050000CF910895CF93DF93D82FC62F0E94620218
:100510008D2F0E944B0282E08A95F1F700C08C2F4C
:100520000E944B020E945D028FEC97E00197F1F769
:1005300000C00000DF91CF910895CF93C82F0E9493
:1005400062028FEA0E944B0282E08A95F1F700C0B6
:100550008C2F0E944B0292E09A95F1F700C080E048
:100560000E944B02C82F0E945D028FEC97E001971A
:10057000F1F700C000008C2FCF910895CF93C82FC2
:10058000662309F458C08BEE91E00E9476084C2F48
:1005900050E0FA01F097EE30F10508F049C0E25C56
:1005A000FF4F0C9436098BEF91E00E94760840C013
:1005B00087E092E00E9476083BC086E192E00E94CC
:1005C000760836C083E292E00E94760831C08FE25E
:1005D00092E00E9476082CC08AE392E00E9476089E
:1005E00027C085E492E00E94760822C082E592E06E
:1005F0000E9476081DC08EE592E00E94760818C021
:100600008AE692E00E94760813C086E792E00E9494
:1006100076080EC082E892E00E94760809C08EE853
:1006200092E00E94760804C08DE992E00E9476086C
:100630008AE00E9436088C2F0E944B0292E09A9525
:10064000F1F700C0CF910895CF93DF93D82FC62F35
:1006500060E08DE30E94BE020E9462028FE20E946F
:100660004B0282E08A95F1F700C08D2F0E944B0269
:1006700092E09A95F1F700C08C2F0E944B020E94E5
:100680005D028FEC97E00197F1F700C00000DF9169
:10069000CF9108950F931F93CF93DF938C01EB01BC
:1006A00060E08DE30E94BE02982F991F9927991F41
:1006B000F801908382958F7087708883DF91CF9146
:1006C0001F910F910895CF93C82F60E08DE30E9492
:1006D000BE020E9462028EEB0E944B0282E08A956B
:1006E000F1F700C08C2F0E944B0292E09A95F1F72F
:1006F00000C080E00E944B02C82F0E945D028FEC78
:1007000097E00197F1F700C000008C2FCF9108957A
:100710009F92AF92BF92CF92DF92EF92FF920F9390
:100720001F93CF93DF93CDB7DEB7C258D1090FB671
:10073000F894DEBF0FBECDBFBE016F5F7F4FCE010D
:1007400002960E944A038091010690910206A091B0
:100750000306B0910406880F991FAA1FBB1F880FBC
:10076000991FAA1FBB1F880F991FAA1FBB1F880FA5
:10077000991FAA1FBB1F4091FB035091FC0360917E
:10078000FD037091FE03841B950BA60BB70B803DF8
:100790009740A105B10504F18091010690910206F0
:1007A000A0910306B0910406880F991FAA1FBB1FD2
:1007B000880F991FAA1FBB1F880F991FAA1FBB1F55
:1007C000880F991FAA1FBB1F8093FB039093FC0304
:1007D000A093FD03B093FE038091FA03882309F4EC
:1007E000B9C08981813009F084C082ED0E949D02E8
:1007F000882341F18091010690910206A0910306A1
:10080000B0910406880F991FAA1FBB1F880F991F5C
:10081000AA1FBB1F880F991FAA1FBB1F880F991FF4
:10082000AA1FBB1F8093FB039093FC03A093FD03BF
:10083000B093FE0360E082ED0E94240360E084ED4B
:100840000E9424038091010690910206A091030664
:10085000B0910406880F991FAA1FBB1F880F991F0C
:10086000AA1FBB1F880F991FAA1FBB1F880F991FA4
:10087000AA1FBB1F4091FB035091FC036091FD0335
:100880007091FE03841B950BA60BB70B803D974020
:10089000A105B1050CF4EBC089EA92E00E9476084C
:1008A00060E083ED0E94240361E085E30E94BE02C4
:1008B0008091010690910206A0910306B091040672
:1008C000880F991FAA1FBB1F880F991FAA1FBB1F44
:1008D000880F991FAA1FBB1F880F991FAA1FBB1F34
:1008E0008093FB039093FC03A093FD03B093FE035E
:1008F000BEC0823079F582ED0E949D02882309F402
:10090000B6C060E082ED0E94240360E084ED0E94A6
:1009100024038091010690910206A0910306B091F4
:100920000406880F991FAA1FBB1F880F991FAA1FB3
:10093000BB1F880F991FAA1FBB1F880F991FAA1FD3
:10094000BB1F8093FB039093FC03A093FD03B09324
:10095000FE038DC080910001882309F488C082EDD8
:100960000E949D02B82E84ED0E949D02A82E81E077
:100970000E947D00AB1408F46AC0AA2009F467C085
:10098000FE01339680E8DF011D928A95E9F7BA14DB
:1009900080F41B2D812F0E946303912F9B19E3E0AC
:1009A000F0E0EC0FFD1FE90FF11D80831F5F1A15AA
:1009B00088F39B80492D50E02A2D30E02B19310916
:1009C00021503109241735070CF441C08C811F9246
:1009D0008F9389ED92E09F938F930E949C080F90D4
:1009E0000F900F900F90B1E0B91520F58E010B5FBD
:1009F0001F4F8EEF890D0F2EF6E0CF2ED12CF02D4C
:100A0000CC0EDD1EC80ED11C0F2EF5E1EF2EF1E04D
:100A1000FF2EF02DF80181918F011F928F93FF928D
:100A2000EF920E949C080F900F900F900F900C1562
:100A30001D0581F78BEF92E09F938F930E949C0896
:100A4000692D82ED0E942403B90C0F900F90BA100B
:100A50000AC0BB2041F060E082ED0E94240360E008
:100A600084ED0E94240360E083ED0E942403CE57AE
:100A7000DF4F0FB6F894DEBF0FBECDBFDF91CF9131
:100A80001F910F91FF90EF90DF90CF90BF90AF90AC
:100A90009F900895CF93DF93D82FC62F60E08DE30A
:100AA0000E94BE020E9462028EE30E944B0282E01C
:100AB0008A95F1F700C08D2F0E944B0292E09A9523
:100AC000F1F700C08C2F0E944B020E945D028FEC58
:100AD00097E00197F1F700C00000DF91CF910895F2
:100AE0001F93CF93DF93C82FD62F142F0E94670236
:100AF00011110CC0E1E0F0E0AF0102C0440F551F3E
:100B0000DA95E2F74095682F64230AC041E050E08F
:100B10009A0102C0220F331FDA95E2F7682F622B89
:100B20008C2F0E948202DF91CF911F9108951F9315
:100B3000CF93DF93C82FD62F142F0E949D0211113F
:100B40000CC0E1E0F0E0AF0102C0440F551FDA95A0
:100B5000E2F74095682F64230AC041E050E09A0113
:100B600002C0220F331FDA95E2F7682F622B8C2F19
:100B70000E942403DF91CF911F91089560E082E1EC
:100B80000E9424036FE583E10E94240360E486E170
:100B90000E9424036EE087E10E94240363E089E160
:100BA0000E94240363E38BE10E94240367E18DE14B
:100BB0000E94240360E58FE10E9424036EE680E238
:100BC0000E94240364E181E20E9424036CEA82E231
:100BD0000E94240364EB87E20E9424036EE082E318
:100BE0000E94240363E086E30E94240368E48AE011
:100BF0000E94820265E08BE00E94820264E081E252
:100C00000E94820260E08DE00E94820240E065E086
:100C10008EE00E94700540E067E082E00E94970548
:100C200040E066E082E00E94970540E066E088E0F0
:100C30000E94700567E189E00E94820263E984E016
:100C40000E9482026BE085E00E94820261E586E0FC
:100C50000E9482026EED87E00E94820260E08DE3D6
:100C60000E94BE0241E066E082E10E94700540E021
:100C700066E083E10E94700560E086E20E948202E5
:100C800060E087E20E94820260E288E20E948202C3
:100C90006FE78EE20E94820265EA8FE10E94820283
:100CA0006EE289E20E94820260E38AE20E9482028E
:100CB0006FE78BE20E94820260E08AE00E942403D8
:100CC00060E08BE00E9424036CE68CE00E94240329
:100CD00060E88DE00E94240360E08EE00E9424031F
:100CE000089560E083ED0E94240364E080E00E94A8
:100CF0004A056FEF81E00E944A0561E482E00E94AC
:100D00004A0563E483E00E944A056BE484E00E94A4
:100D10004A0565E085ED0E94240360E082ED0E94B3
:100D2000240360E084ED0E9424030895882309F4DD
:100D30004FC0519A259A3C9A599A2D9A449A2FEF6E
:100D400089E698E1215080409040E1F700C0000022
:100D500044982FEF89E698E1215080409040E1F7D8
:100D600000C00000449A599861E080E30E94BE02EE
:100D700061E08AE30E94BE0261E08BE30E94BE0252
:100D80000E94BE0561E083E30E94BE022FE78AE174
:100D900096E0215080409040E1F700C0000061E003
:100DA00087E30E94BE022FE78AE196E0215080404F
:100DB0009040E1F700C0000081E0809300011092B4
:100DC000FA030E94710661E084E30E94BE02089566
:100DD00061E080E30E94BE0261E08AE30E94BE02FD
:100DE00061E08BE30E94BE020E94BE05E5CFCF9278
:100DF000DF92EF92FF920F931F93CF93DF93C82E52
:100E0000D92FC62FD42E61E0640F80E00E944A05DE
:100E10006C2F81E00E944A05ED2CF12C1E141F045A
:100E20007CF40C2D1D2FC0E0D0E0F80161918F0102
:100E30008C2F8E5F0E944A052196CE15DF05ACF3FC
:100E400060E083ED0E94240362E06D0D85ED0E9459
:100E5000240360E082ED0E94240360E084ED0E94A0
:100E6000240361E085E30E94BE0281E08093FA03DF
:100E70008091010690910206A0910306B0910406AC
:100E8000880F991FAA1FBB1F880F991FAA1FBB1F7E
:100E9000880F991FAA1FBB1F880F991FAA1FBB1F6E
:100EA0008093FB039093FC03A093FD03B093FE0398
:100EB000DF91CF911F910F91FF90EF90DF90CF9036
:100EC00008950F931F93CF93DF93CDB7DEB72C9781
:100ED0000FB6F894DEBF0FBECDBFFE0133968AE099
:100EE000DF011D928A95E9F7BE016E5F7F4FCE014B
:100EF00001960E944A038EEF92E00E947608898153
:100F0000882329F08CE093E00E94760804C08CE1ED
:100F100093E00E9476088A8190E08830910560F520
:100F2000FC01E45BFF4F0C94360988E293E00E94D9
:100F3000760822C083E393E00E9476081DC08CE30C
:100F400093E00E94760818C085E493E00E9476083A
:100F500013C082E593E00E9476080EC082E693E01B
:100F60000E94760809C081E793E00E94760804C0D9
:100F700085E893E00E947608809101069091020630
:100F8000A0910306B0910406880F991FAA1FBB1FEA
:100F9000880F991FAA1FBB1FBC01CD01660F771FC9
:100FA000881F991F660F771F881F991F28EE33E04F
:100FB00040E050E00E9417095F934F933F932F93B7
:100FC00089E993E09F938F938E010D5F1F4F1F93CD
:100FD0000F930E947F09C8010E9476080FB6F8940B
:100FE000DEBF0FBECDBF2C960FB6F894DEBF0FBE8E
:100FF000CDBFDF91CF911F910F9108951F920F9256
:101000000FB60F9211248F93EF93FF93E09100049A
:10101000F0E08091D200EF5FFB4F8083809100046D
:101020008F5F80930004809100041092FF03FF9172
:10103000EF918F910F900FBE0F901F901895539ABC
:101040005498E8ECF0E080E880831092CE0083E3CF
:101050008093CD0080E98093CC008FE0808381E095
:101060008093CA008093C90078940895CF92DF924C
:10107000EF92FF920F931F93CF93DF93C82EDD243F
:10108000D3940F2EFCE1EF2EF02D0F2EFEE4FF2E59
:10109000F02D0EE010E0D0E0C0E0B0E0E9ECF0E0D0
:1010A000A081A4FF17C02D2D3E2D4F2D502F612F55
:1010B0007D2F8C2F9B2FAFEF0E943C09D22EE32E69
:1010C000F42E052F162FD72FC82FB92FA0E00E947E
:1010D000480931F7C092D20080E0DF91CF911F9193
:1010E0000F91FF90EF90DF90CF900895EF92FF92D5
:1010F0000F931F93CF93DF938C0181E00E947D00BB
:101100007801C0E0D0E006C0F70181917F010E9424
:1011100036082196F80101900020E9F73197E01B8D
:10112000F10BCE17DF0780F380E0DF91CF911F91A5
:101130000F91FF90EF900895CF93DF93CDB7DEB777
:10114000C058D1090FB6F894DEBF0FBECDBFFE0167
:10115000EB57FF4F41915191CE01019620E8DC0100
:101160001D922A95E9F79F0160E870E00E94BA0994
:101170008038910528F082EA93E00E94760804C046
:10118000CE0101960E947608C058DF4F0FB6F89442
:10119000DEBF0FBECDBFDF91CF9108959091FF03C9
:1011A000809100041F929F931F928F9382ED93E092
:1011B0009F938F930E949C080F900F900F900F9019
:1011C0000F900F900895F894109201061092020665
:1011D0001092030610920406A89580E480936000A4
:1011E000789408951F920F920FB60F9211248F9347
:1011F0009F93AF93BF938091010690910206A091B7
:101200000306B09104060196A11DB11D809301064D
:1012100090930206A0930306B0930406BF91AF918A
:101220009F918F910F900FBE0F901F901895052ED4
:1012300097FB1EF400940E942E0957FD07D00E94D0
:10124000540907FC03D04EF40C942E095095409598
:10125000309521953F4F4F4F5F4F08959095809562
:10126000709561957F4F8F4F9F4F0895EE0FFF1F31
:101270000590F491E02D09940024A7FD00942A0F15
:10128000301D401D501D601D701D801D901D089556
:101290000024A7FD00942A1730054005500560057D
:1012A0007005800590050895A1E21A2EAA1BBB1BAC
:1012B000FD010DC0AA1FBB1FEE1FFF1FA217B30722
:1012C000E407F50720F0A21BB30BE40BF50B661F38
:1012D000771F881F991F1A9469F7609570958095FC
:1012E00090959B01AC01BD01CF010895FB01DC018C
:1012F0008D91019080190110D9F3990B0895AEE0FA
:10130000B0E0E5E8F9E00C948E0F0D891E8986E0C7
:101310008C831A8309838FEF9FE79E838D83AE01B1
:10132000475E5F4F6F89788DCE0101960E94E60976
:10133000EF81F885E00FF11F10822E96E4E00C9407
:10134000AA0FAEE0B0E0E7EAF9E00C94900F85E078
:101350008C838B899C899A838983AE01495E5F4F18
:101360006D897E89CE0101960E94360D2E96E2E0AF
:101370000C94AC0FAEE0B0E0E0ECF9E00C948E0F12
:101380008C01CA0146E04C831A83098377FF02C0AF
:1013900060E070E8615071097E836D83A901BC0132
:1013A000CE0101960E94E6094D815E8157FD0AC07B
:1013B0002F813885421753070CF49A01F801E20F88
:1013C000F31F10822E96E4E00C94AA0FACE0B0E07C
:1013D000ECEEF9E00C94800F7C016B018A01FC01BA
:1013E00017821682838181FFBDC1CE0101964C0117
:1013F000F7019381F60193FD859193FF81916F0130
:10140000882309F4ABC1853239F493FD859193FFAC
:1014100081916F01853229F4B70190E00E94D40ECA
:10142000E7CF512C312C20E02032A0F48B3269F030
:1014300030F4803259F0833269F420612CC08D324F
:1014400039F0803339F4216026C02260246023C043
:10145000286021C027FD27C030ED380F3A3078F4DE
:1014600026FF06C0FAE05F9E300D1124532E13C0F4
:101470008AE0389E300D1124332E20620CC08E324B
:1014800021F426FD6BC1206406C08C3611F420685F
:1014900002C0883641F4F60193FD859193FF819156
:1014A0006F018111C1CF982F9F7D9554933028F4FF
:1014B0000C5F1F4FFFE3F9830DC0833631F0833794
:1014C00071F0833509F05BC022C0F8018081898307
:1014D0000E5F1F4F44244394512C540115C0380112
:1014E000F2E06F0E711CF801A080B18026FF03C0EE
:1014F000652D70E002C06FEF7FEFC5012C870E9461
:101500008B0E2C0183012C852F77222E17C03801DA
:10151000F2E06F0E711CF801A080B18026FF03C0BD
:10152000652D70E002C06FEF7FEFC5012C870E9430
:10153000800E2C012C852068222E830123FC1BC0E9
:10154000832D90E048165906B0F4B70180E290E090
:101550000E94D40E3A94F4CFF50127FC859127FE22
:1015600081915F01B70190E00E94D40E31103A944E
:10157000F1E04F1A51084114510471F7E5C0843667
:1015800011F0893639F5F80127FF07C060817181B4
:10159000828193810C5F1F4F08C060817181882711
:1015A00077FD8095982F0E5F1F4F2F76B22E97FFF5
:1015B00009C090958095709561957F4F8F4F9F4F93
:1015C0002068B22E2AE030E0A4010E941F0FA82E4E
:1015D000A81844C0853729F42F7EB22E2AE030E0C7
:1015E00025C0F22FF97FBF2E8F36C1F018F4883551
:1015F00079F0B4C0803719F0883721F0AFC02F2FB1
:101600002061B22EB4FE0DC08B2D8460B82E09C0AF
:1016100024FF0AC09F2F9660B92E06C028E030E054
:1016200005C020E130E002C020E132E0F801B7FE61
:1016300007C060817181828193810C5F1F4F06C05A
:101640006081718180E090E00E5F1F4FA4010E94D5
:101650001F0FA82EA818FB2DFF77BF2EB6FE0BC0BC
:101660002B2D2E7FA51450F4B4FE0AC0B2FC08C086
:101670002B2D2E7E05C07A2C2B2D03C07A2C01C079
:10168000752C24FF0DC0FE01EA0DF11D8081803311
:1016900011F4297E09C022FF06C07394739404C01C
:1016A000822F867809F0739423FD13C020FF06C0B3
:1016B0005A2C731418F4530C5718732C731468F4C1
:1016C000B70180E290E02C870E94D40E73942C85A1
:1016D000F5CF731410F4371801C0312C24FF12C059
:1016E000B70180E390E02C870E94D40E2C8522FF66
:1016F00017C021FF03C088E590E002C088E790E0B2
:10170000B7010CC0822F867859F021FD02C080E21B
:1017100001C08BE227FD8DE2B70190E00E94D40E5C
:10172000A51438F4B70180E390E00E94D40E5A94D7
:10173000F7CFAA94F401EA0DF11D8081B70190E082
:101740000E94D40EA110F5CF332009F451CEB70179
:1017500080E290E00E94D40E3A94F6CFF7018681A1
:10176000978102C08FEF9FEF2C96E2E10C949C0FC3
:1017700020FD09C0FC0123FD05C022FF02C07383C8
:10178000628351834083089544FD10C046FD10C01C
:10179000DB01FC01AA0FBB1FEE1FFF1F1094D1F746
:1017A0006A0F7B1F8E1F9F1F31E003C033E001C013
:1017B00034E0660F771F881F991F3150D1F7620FF1
:1017C000711D811D911D08950F931F93CF93DF937A
:1017D0008C01C8010E94960EEC0197FD08C00E9482
:1017E0006D0E892BB1F7B801CE010E94060FCE0114
:1017F000DF91CF911F910F9108958F929F92AF9299
:10180000CF92DF92EF92FF920F931F93CF93DF93CC
:10181000EC01A62E4A01022F0E94960EAC0155271C
:101820004B32510521F04D32510551F40068AA9414
:1018300011F480E067C0CE010E94960E97FDF9CFAB
:10184000102F1D7F302F307301F58033F1F4FF240A
:10185000FA94FA0C09F442C0CE010E94960E97FD4C
:101860003DC0382F3F7D383551F41264AA94AA94B4
:10187000A9F1CE010E94960E97FF07C02FC006FF68
:1018800002C0126001C01261AF2CC12CD12C7601B4
:1018900020ED280F283080F014FF04C0BE010E9404
:1018A000060F19C02A3040F016FFF8CF2F7D3FEE0B
:1018B000320F363098F72750412FC701B6010E94EA
:1018C000C40B6B017C011260AA9459F0CE010E94F6
:1018D000960E97FFDDCF11FD04C0ABCFC12CD12CEC
:1018E000760117FF08C0F094E094D094C094C11C16
:1018F000D11CE11CF11C212FB701A601C4010E94DB
:10190000B80B81E0DF91CF911F910F91FF90EF9085
:10191000DF90CF90AF909F908F900895A1E2B0E0BC
:10192000E4E9FCE00C94850F5C017A018E010F5F05
:101930001F4F680180E2D8011D928A95E9F7F501F1
:10194000738040E050E0812CB0E0912C81E090E089
:10195000F90173FCA59173FEA1918F017A2F9F016C
:10196000A11103C080E090E07DC0AE3519F44115AF
:10197000510559F1E92DF0E0E417F5073CF4AD35D8
:1019800069F1AD3219F4BB2319F103C0B11101C0E3
:101990008A2EE72FE695E695E69586010E0F111D36
:1019A000F801A72FA7708C0102C0000F111FAA9584
:1019B000E2F7D801B081BA2BB083781559F07815C9
:1019C00010F47F5FE6CF7150E4CF9924939403C065
:1019D000B1E001C0B0E04F5F5F4FBACFBB2319F059
:1019E0008E8180628E83911003C09924939415C0D8
:1019F000F601CE018196208120952193E817F90701
:101A0000D1F7F3CFE114F10429F0D7018C93F7015A
:101A100031967F01615001F1912CC50169A30E94AB
:101A2000960E69A197FD16C0282F26952695269516
:101A3000F601E20FF11D208130E0AC01477055271F
:101A400002C0359527954A95E2F720FDDBCFB50119
:101A50000E94060F911086CFE114F10411F0D70116
:101A60001C92C801A196EDE00C94A10F4F925F92D9
:101A70007F928F929F92AF92BF92CF92DF92EF921E
:101A8000FF920F931F93CF93DF931F92CDB7DEB7D3
:101A90008C012B017A01FC0117821682A12CF8011E
:101AA000D380F201D3FC8591D3FE8191382F2F0191
:101AB000882309F4FCC090E039830E946D0E3981BF
:101AC000892B21F0C8010E94E40BE9CF353241F4A3
:101AD000F201D3FC3591D3FE31912F01353269F4F7
:101AE000C80139830E94960E398197FDDEC03817F0
:101AF000B1F2B8010E94060FDAC03A3241F4D3FCC9
:101B00003591D3FE31912F01BB24B39401C0B12C88
:101B1000712C20ED230F2A3090F4FB2DF260BF2EA4
:101B2000672D70E080E090E040E20E94C40B762ECA
:101B3000F201D3FC3591D3FE31912F01EACFB1FEF2
:101B400003C0711003C0B3C077247A94383619F0FB
:101B50003C3661F014C0F201D3FC3591D3FE3191D3
:101B60002F01383661F4FB2DF860BF2E8B2D846079
:101B7000B82EF201D3FC3591D3FE31912F013323DE
:101B800009F495C0632F70E088EA90E039830E94E1
:101B9000750E3981892B09F48AC0B0FC07C0F701A2
:101BA000C080D180C70102967C0102C0C12CD12C1B
:101BB0003E3651F4F8014681578160E070E02B2DEC
:101BC000C6010E94B80B6BCF3336A1F4B1FC02C042
:101BD00077247394C8010E94960E97FD66C0C114C5
:101BE000D10429F0F6018083C60101966C017A9434
:101BF00089F757C03B3559F49201A601672DC801FA
:101C00000E948E0C2C01009709F04BC045C0C80102
:101C100039830E94E40B398197FD47C03F3669F153
:101C200028F4343631F1393679F12BC0333769F085
:101C30003537F9F026C0C114D10429F0F6018082AD
:101C4000C60101966C017A9471F0C8010E94960E4B
:101C50004C0197FD08C00E946D0E892B61F3B801FD
:101C6000C4010E94060FC114D104D9F0F6011082FC
:101C700018C0FB2DF062BF2E07C08B2D8061B82EDF
:101C800003C09B2D9064B92E2B2DA601672DC80192
:101C90000E94FD0B811105C0F8018381807329F436
:101CA00006C0B0FCFCCEA394FACEAA2019F08A2D6F
:101CB00090E002C08FEF9FEF0F90DF91CF911F91C7
:101CC0000F91FF90EF90DF90CF90BF90AF909F90DB
:101CD0008F907F905F904F90089591110EC1803248
:101CE00019F089508550D0F70895FC01059006162B
:101CF00021F00020D9F7C00108953197CF01089550
:101D0000FC010590615070400110D8F780959095C6
:101D10008E0F9F1F0895FC016150704001900110CB
:101D2000D8F7809590958E0F9F1F0895CF93DF93DE
:101D3000EC012B8120FF33C026FF0AC02F7B2B83B1
:101D40008E819F8101969F838E838A8190E029C036
:101D500022FF0FC0E881F9818081992787FD909546
:101D6000009719F420622B831AC03196F983E88317
:101D70000EC0EA85FB85099597FF09C02B81019666
:101D800011F480E101C080E2822B8B8308C02E8198
:101D90003F812F5F3F4F3F832E83992702C08FEFF4
:101DA0009FEFDF91CF9108950F931F93CF93DF9310
:101DB000182F092FEB018B8181FD03C08FEF9FEF5F
:101DC00020C082FF10C04E815F812C813D8142176F
:101DD00053077CF4E881F9819F012F5F3F4F3983DE
:101DE0002883108306C0E885F985812F0995892B02
:101DF00029F72E813F812F5F3F4F3F832E83812F15
:101E0000902FDF91CF911F910F910895FB012381B6
:101E100020FF12C026FD10C08F3F3FEF930761F0F7
:101E200082832F7D206423832681378121503109CD
:101E300037832683992708958FEF9FEF0895FA013E
:101E4000AA27283051F1203181F1E8946F936E7FF9
:101E50006E5F7F4F8F4F9F4FAF4FB1E03ED0B4E0EA
:101E60003CD0670F781F891F9A1FA11D680F791F2B
:101E70008A1F911DA11D6A0F711D811D911DA11D3C
:101E800020D009F468943F912AE0269F112430194C
:101E9000305D3193DEF6CF010895462F4770405DE7
:101EA0004193B3E00FD0C9F7F6CF462F4F70405D96
:101EB0004A3318F0495D31FD4052419302D0A9F7F1
:101EC000EACFB4E0A6959795879577956795BA95EB
:101ED000C9F700976105710508959B01AC010A2EB1
:101EE00006945795479537952795BA95C9F7620F88
:101EF000731F841F951FA01D089599278827089593
:101F00002F923F924F925F926F927F928F929F9209
:101F1000AF92BF92CF92DF92EF92FF920F931F93F7
:101F2000CF93DF93CDB7DEB7CA1BDB0B0FB6F894A8
:101F3000DEBF0FBECDBF09942A88398848885F84E8
:101F40006E847D848C849B84AA84B984C884DF8059
:101F5000EE80FD800C811B81AA81B981CE0FD11D3D
:101F60000FB6F894DEBF0FBECDBFED010895F89413
:021F7000FFCFA1
:101F720001255B5E3A5D3A252A63255B5E3A5D2563
:101F82002A63252A6325630053454E44000A2A2A00
:101F92002A2053656E64696E6720220020746F20C8
:101FA200616464726573733A20256400202A2A2AC8
:101FB2000A004572726F723A2070726F63657373B2
:101FC200696E672073656E6420636F6D6D616E6408
:101FD2000A004572726F723A20496E76616C6964CA
:101FE20020636F6D6D616E640A0052455345540063
:101FF2005374617274696E6720696E697469616C89
:10200200697A652E2E2E200A00436F6D706C6574FE
:102012006564204C454420696E697469616C697A13
:10202200652E2E2E200A00436F6D706C65746564F8
:102032002054525320696E697469616C697A652E05
:102042002E2E200A00436F6C6C6973696F6E2044F8
:102052006574656374656421210A00436F6D6D6167
:102062006E64207374726F62652800307833302991
:102072003A20535245530030783331293A2053469F
:102082005354584F4E0030783332293A2053584F28
:1020920046460030783333293A205343414C0030CE
:1020A200783334293A205352580030783335293A5C
:1020B200205354580030783336293A205349444C3F
:1020C200450030783337293A20534146430030786F
:1020D2003338293A2053574F520030783339293A4E
:1020E20020535057440030783341293A2053465206
:1020F200580030783342293A2053465458003078F9
:102102003343293A2053574F5252535400307833B5
:1021120044293A20534E4F50002A2A2A41434B2049
:10212200576169742054696D656F75742C2052650E
:102132007472616E736D697474696E67204D657334
:10214200736167652A2A2A0A00476F7420706163E7
:102152006B657420666F7220616464726573733A92
:10216200202564206D73673A202200220A0043680A
:102172006970207374617475733A20004E4F542055
:102182005245414459202831292C200052454144CE
:1021920059202830292C200049444C452028303031
:1021A2003029005258202830303129005458202834
:1021B2003031302900465354584F4E2028303131A7
:1021C200290043414C494252415445202831303084
:1021D2002900534554544C494E4720283130312967
:1021E200005258204649464F204552524F5220280D
:1021F20031313029005458204649464F2045525229
:102202004F5220283131312900617420256C6473CA
:102212000A004572726F7220666F726D6174746526
:102222006420737472696E6720746F6F206C6172C0
:1022320067652028756172745F7072696E746629B1
:102242000A00554152542044656275673A20696E0E
:10225200646578203D2025642C204F564552464C1B
:0A2262004F57203D2025640A0000BC
:00000001FF
