:100000000C943E000C9450000C9450000C94500042
:100010000C9450000C9450000C9450000C94500020
:100020000C9450000C9450000C9450000C94500010
:100030000C94D6000C9450000C9450000C9450007A
:100040000C9450000C9450000C9450000C945000F0
:100050000C9450000C9450000C9450000C945000E0
:100060000C9450000C9450000C9450000C945000D0
:100070000C9450000C9450000C94500011241FBE9E
:10008000CFEFD8E0DEBFCDBF21E0A0E0B1E001C0FE
:100090001D92A034B207E1F70E946D000C94FA03A0
:1000A0000C940000873029F42BB191E092279BB982
:1000B00007C0833029F498B181E0892788B9089571
:1000C00045B121E030E0B90102C0660F771F8A9583
:1000D000E2F7CB01842785B90895E1E6F0E080E8F6
:1000E000808310828EEF84B981E187B918B889E0E6
:1000F0008AB981E08BB91DB81EB80E94E5000E9444
:100100009F000E94600378940E9418020E94CF0012
:1001100087E00E945200C1E40E94D5020E94B00311
:10012000E0911B01F0911C01C08361E080911B01F3
:1001300090911C010E94170380933F01EDCF85B77A
:100140008F7785BF83E58CBD08958EBD0DB407FC08
:1001500004C089EE8150F1F708958AE00E941501EC
:100160008EB5089581E090E00E94ED000895CF9350
:100170005B988EBD0DB407FC06C0C9EEC150F1F707
:100180000E94B20009C087E00E9415010E94B200DF
:100190008AE00E941501CEB58C2FCF910895449A24
:1001A000089581E090E00E94ED0008951F920F9263
:1001B0000FB60F9211248F9381E080933D018F91B0
:1001C0000F900FBE0F901F90189510926F00109215
:1001D00080008AE080938100089510923D01109282
:1001E000850010928400909389008093880082E0BB
:1001F00080936F0080913D018823E1F308950F9370
:100200001F93CF93DF938C01009751F0C0E0D0E0B3
:1002100088EE93E00E94ED002196C017D107C1F748
:10022000DF91CF911F910F910895882321F090E0E5
:100230009F5F9813FDCF0895CF93C82F0E94D100E0
:1002400080E88C0F0E94A50081E090E00E94ED0004
:1002500080E00E94A500C82F0E94B20081E090E0DB
:100260000E94FF008C2FCF910895CF93DF93D82F5A
:10027000C62F0E94D1008D2F0E94A50081E090E042
:100280000E94ED008C2F0E94A5000E94B20081E028
:1002900090E00E94FF00DF91CF910895CF93C82F87
:1002A0000E94D1008FEA0E94A50081E090E00E94A8
:1002B000ED008C2F0E94A50081E090E00E94ED00EF
:1002C00080E00E94A500C82F0E94B20081E090E06B
:1002D0000E94FF008C2FCF910895CF930E94B7000A
:1002E000C82F81E090E00E94ED008C2FCF910895FF
:1002F000CF93DF93D82FC62F8DE30E946D010E940C
:10030000D1008FE20E94A50081E090E00E94ED0004
:100310008D2F0E94A50081E090E00E94ED008C2FBF
:100320000E94A5000E94B20081E090E00E94FF00C0
:10033000DF91CF910895CF93DF93EB018DE30E947E
:100340006D018F7782958F708883DF91CF910895AB
:10035000CF93C82F8DE30E946D010E94D1008EEBD8
:100360000E94A50081E090E00E94ED008C2F0E9489
:10037000A50081E090E00E94ED0080E00E94A500D1
:10038000C82F0E94B20081E090E00E94FF008C2FF5
:10039000CF9108951F93CF93DF93C82FD62F142F9B
:1003A0000E941C0111110CC0E1E0F0E0AF0102C09D
:1003B000440F551FDA95E2F74095682F64230AC071
:1003C00041E050E09A0102C0220F331FDA95E2F7B4
:1003D000682F622B8C2F0E943501DF91CF911F91E6
:1003E00008951F93CF93DF93C82FD62F142F0E9409
:1003F0004E0111110CC0E1E0F0E0AF0102C0440F6A
:10040000551FDA95E2F74095682F64230AC041E052
:1004100050E09A0102C0220F331FDA95E2F7682FED
:10042000622B8C2F0E947801DF91CF911F9108954C
:100430000E94D10080E30E946D018AE30E946D0159
:100440008BE30E946D0160E082E10E9478016FE51C
:1004500083E10E94780160E486E10E9478016EE009
:1004600087E10E94780163E089E10E94780163E3FB
:100470008BE10E94780167E18DE10E94780160E5DF
:100480008FE10E94780164E181E20E9478016CEAC8
:1004900082E20E9478018DE30E946D016BE088E0AA
:1004A0000E9435016DE083E10E94350164E086E23F
:1004B0000E9435016BE088E00E9435016CE18CE020
:1004C0000E94350160E080E10E94350164E081E135
:1004D0000E94350165E083E10E94350169EA8CE103
:1004E0000E9435016FEC8DE10E94350160E08EE1E4
:1004F0000E94350163E080E20E94350160E08EE2F7
:100500000E94350160E080E00E94780168E48AE0A2
:100510000E94350165E08BE00E94350164E081E2D4
:100520000E94350160E08DE00E94350140E065E009
:100530008EE00E94CA0140E067E082E00E94F10183
:1005400040E066E082E00E94F10140E066E088E081
:100550000E94CA0167E189E00E94350160E086E2FD
:100560000E9435016FEF8EE20E9435018DE30E94FB
:100570006D016CE68CE00E94780160E88DE00E94DD
:10058000780183E30E946D018AEF90E00E94FF00F2
:1005900087E30E946D018AEF90E00E94FF001092B5
:1005A000000184E30E946D010895CF93DF9300D092
:1005B000CDB7DEB7BE016E5F7F4FCE0101960E94C0
:1005C0009B018A818650823068F586E30E946D0126
:1005D0008DE30E946D0180E80E94A801809336019E
:1005E00081E80E94A8018093370182E80E94A80157
:1005F0008093380183E80E94A8018093390184E840
:100600000E94A80180933A0185E80E94A801809386
:100610003B0181E0809300018AE30E946D0184E345
:100620000E946D010F900F90DF91CF910895CF93AD
:10063000DF936623C9F0FC0120812093D200209132
:10064000C900220F99F0319680E0C2EDD0E0A9EC0C
:10065000B0E005C0919198839C91990F49F08F5F0C
:100660008613F8CF80E005C080E003C08FEF01C0A3
:100670008FEFDF91CF9108952091C90020FD04C034
:100680002FEFFC01208308952091D200FC011082FD
:10069000822F0895EDE1F1E086E391E01192E817F1
:1006A000F907E1F710921A010895E1E0F1E08AE11B
:1006B00091E01192E817F907E1F710923E010895D1
:1006C00088E08093C80087E68093CD000E944A03AB
:1006D0000E94550310923C010895CF93DF93CDB74C
:1006E000DEB769970FB6F894DEBF0FBECDBF82E4C8
:1006F00089838CE48A8389E48B838EE48C838BE406
:100700008D83FE013196A1E0B1E0CE01069641E075
:1007100050E031912D913213452FE817F907C9F7B1
:10072000442399F06DE080E090E00E94170383E09D
:100730000E94520084E690E00E94FF0083E00E9445
:10074000520084E690E00E94FF000E9455036996E3
:100750000FB6F894DEBF0FBECDBFDF91CF910895E5
:10076000CF93DF931F92CDB7DEB78091C90080FF92
:1007700012C087E00E94520084E690E00E94FF00D1
:1007800087E00E94520084E690E00E94FF00CE01C4
:1007900001960E943C0310923C0130911A013323D0
:1007A00059F08DE191E0A1E0B1E0FC0121912D93A0
:1007B0002E2F281B2317D0F330933E010E944A03AB
:1007C0000E946D0380913C01882359F080911A01A9
:1007D000E82FF0E0E35EFE4F92E390838F5F80931B
:1007E0001A0181E080933C010E944A030F90DF913F
:0807F000CF910895F894FFCFAA
:00000001FF
