:100000000C943E000C9450000C9450000C94500042
:100010000C9450000C9450000C9450000C94500020
:100020000C9450000C9450000C9450000C94500010
:100030000C9450000C9450000C9450000C94500000
:100040000C9450000C9450000C9450000C945000F0
:100050000C94A4000C9450000C9450000C9450008C
:100060000C9450000C9450000C9450000C945000D0
:100070000C9450000C9450000C94500011241FBE9E
:10008000CFEFD8E0DEBFCDBF23E0A0E0B1E001C0FC
:100090001D92A230B207E1F70E9464000C94340173
:1000A0000C940000269A509A0895813019F08230FD
:1000B00031F0089595B180E4892785B908959BB101
:1000C00081E089278BB90895E1E6F0E080E880833C
:1000D00010820E9452000E94C500D0E081E00E9480
:1000E00055002FEF80E792E0215080409040E1F7EB
:1000F00000C0000082E00E9455002FEF81EE94E0E6
:10010000215080409040E1F700C000008091010143
:10011000882321F380910101882379F0CD2FEC2FE2
:10012000F0E0EE5FFE4F80818F5F0E94DC00CF5FCA
:1001300080910101C81798F301C0CD2F8091010172
:100140008C1B80930101CACF1F920F920FB60F92A2
:1001500011248F93EF93FF93E0910101F0E08091E0
:10016000D200EE5FFE4F8083809101018F5F80930C
:1001700001018091010110920001FF91EF918F9197
:100180000F900FBE0F901F901895539A5498E8EC5B
:10019000F0E080E880831092CE0083E38093CD006E
:1001A00080E98093CC008FE0808381E08093CA0057
:1001B0008093C90078940895CF92DF92EF92FF92D6
:1001C0000F931F93CF93DF93C82EDD24D3940F2E6C
:1001D000FCE1EF2EF02D0F2EFEE4FF2EF02D0EE0B1
:1001E00010E0D0E0C0E0B0E0E9ECF0E0A081A4FFD6
:1001F00017C02D2D3E2D4F2D502F612F7D2F8C2F71
:100200009B2FAFEF0E941C01D22EE32EF42E052F60
:10021000162FD72FC82FB92FA0E00E94280131F741
:10022000C092D20080E0DF91CF911F910F91FF909B
:10023000EF90DF90CF9008950024A7FD00942A0F3F
:10024000301D401D501D601D701D801D901D0895A6
:100250000024A7FD00942A173005400550056005CD
:0C0260007005800590050895F894FFCF0C
:00000001FF
