S019000053756273797374656D5F50726F6772616D2E7372656305
S11300000C9449000C945B000C945B000C945B0012
S11300100C945B000C945B000C945B000C945B00F0
S11300200C945B000C945B000C945B000C945B00E0
S11300300C94480C0C945B000C945B000C945B00D7
S11300400C945B000C945B000C945B000C945B00C0
S11300500C945B000C945B000C945B000C945B00B0
S11300600C945B000C945B000C945B000C945B00A0
S11300700C945B000C945B000C945B0008049A04E1
S113008024059805D8055406D1066E071408020401
S11300901D0911241FBECFEFD8E0DEBFCDBF21E084
S11300A0A0E0B1E001C01D92A937B207E1F70E94B8
S11300B0C80B0C948F0E0C94000082E080937C009B
S11300C082EE80937A0080EA80937B00089520E298
S11300D031E030933101209330011092340170E00B
S11300E070932C0160932B0122E020932A0128E0D5
S11300F020932F0124E020936E01DC01E0E2F1E083
S113010088E291E02D912193E817F907D9F76091DE
S11301106E0189E291E00E94BE038111F8CF6091E3
S11301206E0189E291E00E94EA098130C1F30895E9
S1130130CF93DF93EC018D818330D9F128F48130A2
S113014051F08230D1F062C0853009F444C0873068
S113015009F44FC05BC083E00E94AD0B84E690E0DD
S11301600E94710C83E00E94AD0B84E690E00E9433
S1130170710C81E080933E0149C087E00E94AD0B81
S113018084E690E00E94710C87E00E94AD0B84E647
S113019090E00E94710C81E080936501DE01E5E34B
S11301A0F1E08DE391E02D912193E817F907D9F758
S11301B02DC086E00E94AD0B84E690E00E94710C95
S11301C086E00E94AD0B84E690E00E94710C81E011
S11301D080934E011BC081E080934501DE01E0E77E
S11301E0F1E088E791E02D912193E817F907D9F719
S11301F00DC081E080932801DE01E0E0F1E088E0B9
S113020091E02D912193E817F907D9F7DF91CF9168
S113021008951092340195E090932A0198E0909308
S11302202F0180936E0181110EC086E491E09093BA
S11302303101809330018091570190E090932C011B
S113024080932B010895813071F488E091E09093BC
S11302503101809330018091580190E090932C01FA
S113026080932B010895823071F480E191E09093A2
S11302703101809330018091590190E090932C01D9
S113028080932B010895833071F48DE591E0909370
S113029031018093300180915A0190E090932C01B8
S11302A080932B010895853069F486E691E090935C
S11302B031018093300180915C0190E090932C0196
S11302C080932B010895811120C01092340185E0A0
S11302D080932A0188E080932F0110926E0186E4B6
S11302E091E090933101809330018091570190E027
S11302F090932C0180932B0160916E0189E291E02F
S11303000E94BE038111F8CF0895813001F5109247
S1130310340185E080932A0188E080932F0181E0F5
S113032080936E0188E091E09093310180933001D5
S113033085E190E090932C0180932B0160916E01F4
S113034089E291E00E94BE038111F8CF08958230C2
S113035009F51092340185E080932A0188E08093A6
S11303602F0182E080936E0180E191E0909331014E
S1130370809330018091590190E090932C018093F7
S11303802B0160916E0189E291E00E94BE0381110C
S1130390F8CF0895833009F51092340185E08093F5
S11303A02A0188E080932F0183E080936E018DE51C
S11303B091E0909331018093300180915A0190E053
S11303C090932C0180932B0160916E0189E291E05E
S11303D00E94BE038111F8CF08958530F1F4109284
S11303E0340180932A0198E090932F0180936E0149
S11303F086E691E0909331018093300180915C0115
S113040090E090932C0180932B0160916E0189E21E
S113041091E00E94BE038111F8CF0895CF93DF933A
S113042085E00E94090160916E0189E291E00E94D9
S1130430EA09813011F1809132018032D9F4A0911E
S11304403001B0913101C7E5D1E0EFE4F1E08D91E5
S11304508193EC17FD07D9F780915501823021F47F
S11304608FE491E00E949800EFE4F1E01192EC1720
S1130470FD07E1F785E00E946301DF91CF910895C4
S11304809F92AF92BF92CF92DF92EF92FF920F931F
S11304901F93CF93DF93912C02E311E00F2EF0E32F
S11304A0AF2EF1E0BF2EF02DC7E5D1E00F2EFFE413
S11304B0EF2EF1E0FF2EF02D0F2EF5E5CF2EF1E01B
S11304C0DF2EF02D892D0E94090160916E0189E2D1
S11304D091E00E94EA098130E1F0F80180818032E4
S11304E0A9F4F501A081B181F7018D918193EC17F5
S11304F0FD07D9F7F6018081823019F4C7010E9403
S11305009800F7011192EC17FD07E1F7892D0E947D
S113051063019394F4E09F12D5CF0E940E02DF9101
S1130520CF911F910F91FF90EF90DF90CF90BF90EC
S1130530AF909F900895CF93DF9384E18093570108
S113054085E18093580186E18093590187E1809386
S11305505A0188E180935B0189E180935C0186E420
S113056091E090933101809330011092340184E141
S113057090E090932C0180932B0185E080932A01D5
S113058088E080932F0110926E0160916E0189E2E0
S113059091E00E94BE038111F8CF88E091E090932E
S11305A0310180933001109234018091580190E020
S11305B090932C0180932B0185E080932A0188E09D
S11305C080932F0181E080936E0160916E0189E236
S11305D091E00E94BE038111F8CF80E191E09093F5
S11305E0310180933001109234018091590190E0DF
S11305F090932C0180932B0185E080932A0188E05D
S113060080932F0182E080936E0160916E0189E2F4
S113061091E00E94BE038111F8CF8DE591E09093A3
S11306203101809330011092340180915A0190E09D
S113063090932C0180932B0185E080932A0188E01C
S113064080932F0183E080936E0160916E0189E2B3
S113065091E00E94BE038111F8CF86E691E0909369
S11306603101809330011092340180915C0190E05B
S113067090932C0180932B0185E080932A0198E0CC
S113068090932F0180936E0160916E0189E291E055
S11306900E94BE038111F8CFEFE4F1E088E191E01C
S11306A0C0E7D1E040E051E027E531E01192DC0100
S11306B01D92CD011992DA011D92AD01E217F307E3
S11306C0A9F710923E0110924E011092650110920A
S11306D0450110922801DF91CF91089580E0ADEE9D
S11306E0B0E03EEE20E0982F9295907F9C93E32F0C
S11306F0F22F1192E83FF105E1F78F5F863099F709
S113070008958091EF00807C61F08091EE00982F35
S1130710907E282F2076203231F0903431F08F7182
S113072008958FEF0895892F0895892F0895FC0166
S113073080E0AAEFB0E09C9191938F5F8830D9F765
S1130740089581E08093D80082E08093E2008CE0F9
S11307508093E30087E38093E40081E008950E949E
S1130760A103882349F00E946E03E8EDF0E0808144
S11307708260808381E0089580E00895CF93DF93C1
S11307801F92CDB7DEB7DC0111968C9111978C3096
S1130790B1F419968C911997803669F4862F829555
S11307A0807F8093ED00EFEEF0E080818F73808393
S11307B01092EE006C9319961C9280E007C6862F67
S11307C08295807F8093ED008091EF00807C09F01A
S11307D0F9C580E619968C9319976C93EEEEF0E0C8
S11307E01192E83FF105E1F711964C91119750E011
S11307F0FA013197EB30F10508F0E0C5E25CFF4FF8
S11308000C94890E16968C9116978111B7C4C8C49E
S11308101B968C911B978823D9F114969C9114975D
S113082092959695977015968C911597880F880FC9
S1130830880F890F8093F30013969C9113979295D8
S11308409695977014968C911497880F880F880F3B
S1130850890F8093F20012969C9112979295969527
S1130860977013968C911397880F880F880F890FB0
S11308708093F10012968C911297880F880F880F3D
S11308808093F000EFEEF0E08081806180831CC0F3
S113089012968C91129786958695869513969C91BF
S11308A0139720E2929F800D11248093F3001296F7
S11308B08C9112978295880F807E8093F200EFEEE0
S11308C0F0E080818F7E808316968C911697882322
S11308D091F020E08AEF90E01796ED91FC91189743
S11308E0E20FF11D3081FC0130832F5F16963C919D
S11308F01697231788F31A968C911A97882331F048
S1130900E0EFF0E080818460808305C0E0EFF0E0F8
S113091080818B7F8083EFEEF0E0908116968C913E
S1130920892B808380818F7380838081806480831E
S113093080E04CC51B968C911B978823D9F11496A3
S11309409C91149792959695977015968C911597FE
S1130950880F880F880F890F8093F30013969C915A
S1130960139792959695977014968C911497880F77
S1130970880F880F890F8093F20012969C9112972A
S113098092959695977013968C911397880F880F6C
S1130990880F890F8093F10012968C911297880F1B
S11309A0880F880F8093F000EFEEF0E08081806183
S11309B080831CC012968C91129786958695869595
S11309C013969C911397F0E29F9F800D11248093BE
S11309D0F30012968C9112978295880F807E8093F3
S11309E0F200EFEEF0E080818F7E808316968C918A
S11309F01697882391F020E08AEF90E01796ED9106
S1130A00FC911897E20FF11D3081FC0130832F5FB8
S1130A1016963C911697231788F31A961C921A97E8
S1130A20E0EFF0E080818B7F8083EFEEF0E0908157
S1130A3016968C91892B808380818F73808380812B
S1130A408064808380E0C2C41B968C911B978823AA
S1130A50D9F114969C911497929596959770159642
S1130A608C911597880F880F880F890F8093F30056
S1130A7013969C91139792959695977014968C91D2
S1130A801497880F880F880F890F8093F2001296AD
S1130A909C91129792959695977013968C911397B3
S1130AA0880F880F880F890F8093F10012968C911C
S1130AB01297880F880F880F8093F000EFEEF0E014
S1130AC08081806180831CC012968C9112978695D8
S1130AD08695869513969C911397F0E29F9F800DBF
S1130AE011248093F30012968C9112978295880FAB
S1130AF0807E8093F200EFEEF0E080818F7E808331
S1130B0081E01A968C931A97E0EFF0E0808184607C
S1130B108083EFEEF0E0908116968C91892B808390
S1130B2080818F73808380818064808380E04EC461
S1130B3019829B819295969597708C81880F880F66
S1130B40880F890F8093F7009A81929596959770F4
S1130B508B81880F880F880F890F8093F600998105
S1130B609295969597708A81880F880F880F890FC0
S1130B708093F5002981220F220F220F84EF90E049
S1130B80FC012083EFEEF0E0308116962C91232BAC
S1130B902083DC012C912B7F2C932C912E7F2C9382
S1130BA080818F73808380818068808380E00EC41D
S1130BB08FEF89838A818295880F807E815E27EFFB
S1130BC030E0F901808349814295440F407E86EFED
S1130BD090E0FC01408312964C91129746954695FD
S1130BE0469513965C911397F0E25F9F400D112494
S1130BF04093F30012964C9112974295440F407E15
S1130C004093F2006FEE70E0FB0140814F7E408321
S1130C1019825B815295569557704C81440F440F4D
S1130C20440F450FF90140833A8132953695377068
S1130C302B81220F220F220F230FFC012083998185
S1130C409295969597708A81880F880F880F890FDF
S1130C508093F5002981220F220F220F84EF90E068
S1130C60FC012083FB01308116962C911697232BCF
S1130C7020831A961C92DC012C9124602C93A0EF03
S1130C80B0E02C912B7F2C9320812F7E2083FC01BC
S1130C9020812E7F2083DB018C918F738C938C9128
S1130CA080688C9380E092C38FEF89838A818295D8
S1130CB0880F807E815E27EF30E0F90180834981CF
S1130CC04295440F407E86EF90E0FC0140831296EB
S1130CD04C91129746954695469513965C911397B9
S1130CE0F0E25F9F400D11244093F30012964C9163
S1130CF012974295440F407E4093F2006FEE70E0ED
S1130D00FB0140814F7E408319825B815295569549
S1130D1057704C81440F440F440F450FF901408331
S1130D203A813295369537702B81220F220F220F8C
S1130D30230FFC01208399819295969597708A815F
S1130D40880F880F880F890F8093F5002981220F5F
S1130D50220F220F84EF90E0FC012083FB013081FD
S1130D6016962C911697232B208321E01A962C9308
S1130D70DC012C9124602C93A0EFB0E02C91246032
S1130D802C9320812F7D2083FC0120812E7F2083C2
S1130D90DB018C918F738C938C9180688C9380E0B1
S1130DA015C31B968C911B978823D9F114969C919B
S1130DB0149792959695977015968C911597880F20
S1130DC0880F880F890F8093F30013969C911397D3
S1130DD092959695977014968C911497880F880F16
S1130DE0880F890F8093F20012969C911297929526
S1130DF09695977013968C911397880F880F880F88
S1130E00890F8093F10012968C911297880F880FA6
S1130E10880F8093F000EFEEF0E0808180618083A2
S1130E201CC012968C91129786958695869513967A
S1130E309C911397E0E29E9F800D11248093F30010
S1130E4012968C9112978295880F807E8093F2007F
S1130E50EFEEF0E080818F7E80838FEF89839B812A
S1130E609295969597708C81880F880F880F890FBB
S1130E708093F7009A819295969597708B81880F4D
S1130E80880F880F890F8093F60099819295969523
S1130E9097708A81880F880F880F890F8093F500D7
S1130EA02981220F220F220F84EF90E0FC0120837E
S1130EB0EFEEF0E0308116962C91232B2083DC0199
S1130EC02C912B7F2C932C9121602C9380818F73F8
S1130ED0808380818068808380E078C21B968C91B7
S1130EE01B978823D9F114969C9114979295969503
S1130EF0977015968C911597880F880F880F890F16
S1130F008093F30013969C911397929596959770FE
S1130F1014968C911497880F880F880F890F8093EB
S1130F20F20012969C91129792959695977013964B
S1130F308C911397880F880F880F890F8093F10085
S1130F4012968C911297880F880F880F8093F00067
S1130F50EFEEF0E08081806180831CC012968C915A
S1130F60129786958695869513969C911397E0E241
S1130F709E9F800D11248093F30012968C911297FA
S1130F808295880F807E8093F200EFEEF0E08081FE
S1130F908F7E80838FEF89839B819295969597703E
S1130FA08C81880F880F880F890F8093F7009A81AE
S1130FB09295969597708B81880F880F880F890F6B
S1130FC08093F60099819295969597708A81880FFF
S1130FD0880F880F890F8093F5002981220F220F33
S1130FE0220F84EF90E0FC012083EFEEF0E03081EB
S1130FF016962C911697232B20831A961C92DC01AB
S11310002C9124602C93A0EFB0E02C912B7F2C9397
S1131010DC012C9121602C9380818F7380838081EB
S11310208068808380E0D2C11B968C911B978823B3
S1131030D9F114969C91149792959695977015965C
S11310408C911597880F880F880F890F8093F30070
S113105013969C91139792959695977014968C91EC
S11310601497880F880F880F890F8093F2001296C7
S11310709C91129792959695977013968C911397CD
S1131080880F880F880F890F8093F10012968C9136
S11310901297880F880F880F8093F000EFEEF0E02E
S11310A08081806180831CC012968C9112978695F2
S11310B08695869513969C911397E0E29E9F800DEA
S11310C011248093F30012968C9112978295880FC5
S11310D0807E8093F200EFEEF0E080818F7E80834B
S11310E08FEF89839B819295969597708C81880F59
S11310F0880F880F890F8093F7009A8192959695AF
S113110097708B81880F880F880F890F8093F60062
S113111099819295969597708A81880F880F880F88
S1131120890F8093F5002981220F220F220F84EF6B
S113113090E0FC012083EFEEF0E0308116962C91D4
S11311401697232B208321E01A962C93DC012C91F3
S113115024602C93A0EFB0E02C9124602C93208188
S11311602F7D2083DC012C9121602C9380818F734F
S1131170808380818068808380E028C120E08AEFBA
S113118090E01796ED91FC911897E20FF11D3081D4
S1131190FC0130832F5F16963C911697231788F332
S11311A019829B819295969597708C81880F880FF0
S11311B0880F890F8093F7009A819295969597707E
S11311C08B81880F880F880F890F8093F60099818F
S11311D09295969597708A81880F880F880F890F4A
S11311E08093F5002981220F220F220F84EF90E0D3
S11311F0FC012083EFEEF0E0308116962C911697D7
S1131200232B208321E01A962C93DC012C9124605B
S11312102C93A0EFB0E02C9124602C9320812062C9
S11312202083DC012C912E7F2C9380818F7380830B
S113123080818068808380E0C9C01B968C911B9755
S11312408823D9F114969C9114979295969597704A
S113125015968C911597880F880F880F890F8093A6
S1131260F30013969C911397929596959770149604
S11312708C911497880F880F880F890F8093F20040
S113128012969C91129792959695977013968C91BD
S11312901397880F880F880F890F8093F100129697
S11312A08C911297880F880F880F8093F000EFEECF
S11312B0F0E08081806180831CC012968C9112972B
S11312C086958695869513969C911397E0E29E9F4A
S11312D0800D11248093F30012968C9112978295BD
S11312E0880F807E8093F200EFEEF0E080818F7EA5
S11312F0808316968C911697882391F020E08AEFCC
S113130090E01796ED91FC911897E20FF11D308152
S1131310FC0130832F5F16963C911697231788F3B0
S11313208FEF89839B819295969597708C81880F16
S1131330880F880F890F8093F7009A81929596956C
S113134097708B81880F880F880F890F8093F60020
S113135099819295969597708A81880F880F880F46
S1131360890F8093F5002981220F220F220F84EF29
S113137090E0FC012083EFEEF0E0308116962C9192
S11313801697232B208321E01A962C93DC012C91B1
S113139024602C93A0EFB0E02C9124602C93208146
S11313A020622083DC012C9121602C9380818F7337
S11313B0808380818068808380E008C019961C92B5
S11313C080E004C08FE119968C938FEF0F90DF912A
S11313D0CF910895CF93DF93EC018985882309F495
S11313E0E3C08F3109F4E2C08F3F09F4E1C0629594
S11313F0607F6093ED000E948103803261F020F4ED
S1131400882309F4D7C0C6C0803409F4B8C0803A30
S113141009F45CC0BFC087E00E94AD0B84E690E095
S11314200E94710C87E00E94AD0B84E690E00E945C
S1131430710C8091F00082FB882780F98A87809163
S1131440EF0084FF2DC081E08B87E3EFF0E0808123
S11314508695869586958D83A2EFB0E08C919081D8
S113146086958695869520E2929F800D11248C8323
S1131470E1EFF0E080819C9186958695869520E247
S1131480929F800D11248B838091F000908186952A
S11314908695869520E2929F800D11248A8307C049
S11314A01B86E3EFF0E080818091F200808180E28E
S11314B089878F8198850E949703EFEEF0E0808101
S11314C08F7380831092EE0080E275C08091F000EB
S11314D082FB882780F98A878091EF0084FF2DC0E2
S11314E081E08B87E3EFF0E0808186958695869591
S11314F08D83A2EFB0E08C91908186958695869538
S113150020E2929F800D11248C83E1EFF0E0808132
S11315109C9186958695869520E2929F800D112454
S11315208B838091F000908186958695869520E244
S1131530929F800D11248A8313C01B86E3EFF0E091
S113154080818295869587708B838091F20090814B
S1131550990F990F990F829586958770890F8A83C1
S113156080EA89878F8198850E949703EFEEF0E0E7
S113157080818F7380831092EE0080EA1CC080E427
S11315808987EFEEF0E080818F7380831092EE0004
S113159080E411C08987EFEEF0E080818F7380834F
S11315A01092EE0082E007C082E005C082E003C032
S11315B082E001C081E0DF91CF91089583E08093C0
S11315C01F0182E080931E0184E080931D0161E18C
S11315D088E191E00E94670010923E01089583E043
S11315E080931F0181E080931E0160E188E191E016
S11315F00E94670010924E0108950F931F93CF939A
S1131600DF9300D0CDB7DEB71091380100913C01D3
S113161002950F70113071F4BE016E5F7F4FCE01E1
S113162001960E942B0C8981809319018A818093F1
S113163018010BC0133021F485E58093180105C00F
S1131640143019F486E68093180100931F01109258
S11316501E0110931D016AE088E191E00E94670079
S1131660109265010F900F90DF91CF911F910F9110
S1131670089583E080931F0110921E0182E08093FD
S11316801D0180913F01809318016AE088E191E097
S11316900E94670010923D01089590917301E091BA
S11316A07001F0E080812091770120931F0122E0F6
S11316B020931E0126E020931D0190931B0180932B
S11316C0180161E188E191E00E94670010924501F0
S11316D00895809103012091000190917701E09198
S11316E00101F0E0208390931F0192E090931E018A
S11316F098E090931D0180931B0181E08093180171
S113170061E188E191E00E94670010922801089548
S113171080913E01813011F40E94DE0A80914E01D5
S1131720813011F40E94EF0A80916501813011F437
S11317300E94FD0A80913D01813011F40E94390B11
S113174080914501813011F40E944D0B8091280154
S1131750813011F40E94690B0895873029F42BB16C
S113176091E092279BB907C0833029F498B181E0B6
S1131770892788B9089545B121E030E0B90102C054
S1131780660F771F8A95E2F7CB01842785B9089500
S1131790E1E6F0E080E8808310828EEF84B981E195
S11317A087B918B889E08AB981E08BB91DB81EB829
S11317B00E94570C0E945D0080E00E94AF030E94CB
S11317C09B020E94F20B78940E948A0D0E94220CC4
S11317D087E00E94AD0B0E9440020E94470E0E94C7
S11317E0880BF9CF85B78F7785BF83E58CBD0895C6
S11317F08EBD0DB407FC04C089EE8150F1F7089545
S11318008AE00E94870C8EB5089581E090E00E94E2
S11318105F0C0895CF935B988EBD0DB407FC06C092
S1131820C9EEC150F1F70E94050C09C087E00E947F
S1131830870C0E94050C8AE00E94870CCEB58C2F81
S1131840CF910895449A089581E090E00E945F0C3E
S11318500895449808950F931F93CF93DF938C01B9
S1131860EB010E94290C1EBC80E890E00E94710CE0
S11318708EB5F801808380E890E00E94710C8EB5EB
S113188088830E94220CDF91CF911F910F910895BC
S11318901F920F920FB60F9211248F9381E08093C1
S11318A078018F910F900FBE0F901F901895109292
S11318B06F00109280008AE0809381000895109256
S11318C0780110928500109284009093890080938F
S11318D0880082E080936F00809178018823E1F38F
S11318E008950F931F93CF93DF938C01009751F0CA
S11318F0C0E0D0E088EE93E00E945F0C2196C01710
S1131900D107C1F7DF91CF911F910F9108958823DB
S113191021F090E09F5F9813FDCF0895CF93C82FD7
S11319200E94240C80E88C0F0E94F80B81E090E068
S11319300E945F0C80E00E94F80BC82F0E94050CE7
S113194081E090E00E94710C8C2FCF910895CF9389
S1131950DF93D82FC62F0E94240C8D2F0E94F80BE2
S113196081E090E00E945F0C8C2F0E94F80B0E9493
S1131970050C81E090E00E94710CDF91CF910895F5
S1131980CF93C82F0E94240C8FEA0E94F80B81E0A9
S113199090E00E945F0C8C2F0E94F80B81E090E095
S11319A00E945F0C80E00E94F80BC82F0E94050C77
S11319B081E090E00E94710C8C2FCF910895CF9319
S11319C00E940A0CC82F81E090E00E945F0C8C2FCB
S11319D0CF910895CF93DF93D82FC62F8DE30E9424
S11319E0DF0C0E94240C8FE20E94F80B81E090E04F
S11319F00E945F0C8D2F0E94F80B81E090E00E9402
S1131A005F0C8C2F0E94F80B0E94050C81E090E083
S1131A100E94710CDF91CF910895CF93DF93EB0176
S1131A208DE30E94DF0C8F7782958F708883DF911E
S1131A30CF910895CF93C82F8DE30E94DF0C0E94AD
S1131A40240C8EEB0E94F80B81E090E00E945F0C66
S1131A508C2F0E94F80B81E090E00E945F0C80E0E4
S1131A600E94F80BC82F0E94050C81E090E00E94B0
S1131A70710C8C2FCF9108951F93CF93DF93C82FB0
S1131A80D62F142F0E948E0C11110CC0E1E0F0E04F
S1131A90AF0102C0440F551FDA95E2F74095682F55
S1131AA064230AC041E050E09A0102C0220F331FB0
S1131AB0DA95E2F7682F622B8C2F0E94A70CDF9136
S1131AC0CF911F9108951F93CF93DF93C82FD62FE3
S1131AD0142F0E94C00C11110CC0E1E0F0E0AF0122
S1131AE002C0440F551FDA95E2F74095682F64232E
S1131AF00AC041E050E09A0102C0220F331FDA9578
S1131B00E2F7682F622B8C2F0E94EA0CDF91CF91B1
S1131B101F9108950E94240C80E30E94DF0C8AE345
S1131B200E94DF0C8BE30E94DF0C60E082E10E94E4
S1131B30EA0C6FE583E10E94EA0C60E486E10E940E
S1131B40EA0C6EE087E10E94EA0C63E089E10E94FE
S1131B50EA0C63E38BE10E94EA0C67E18DE10E94E9
S1131B60EA0C60E58FE10E94EA0C64E181E20E94E4
S1131B70EA0C6CEA82E20E94EA0C8DE30E94DF0C1C
S1131B806BE088E00E94A70C6DE083E10E94A70C43
S1131B9064E086E20E94A70C6BE088E00E94A70C38
S1131BA06CE18CE00E94A70C60E080E10E94A70C2D
S1131BB064E081E10E94A70C65E083E10E94A70C28
S1131BC069EA8CE10E94A70C6FEC8DE10E94A70CDE
S1131BD060E08EE10E94A70C63E080E20E94A70C03
S1131BE060E08EE20E94A70C60E080E00E94EA0CB4
S1131BF068E48AE00E94A70C65E08BE00E94A70CD1
S1131C0064E081E20E94A70C60E08DE00E94A70CD2
S1131C1040E065E08EE00E943C0D40E067E082E039
S1131C200E94630D40E066E082E00E94630D40E0A4
S1131C3066E088E00E943C0D67E189E00E94A70C01
S1131C4060E086E20E94A70C6FEF8EE20E94A70C70
S1131C508DE30E94DF0C6CE68CE00E94EA0C60E8E5
S1131C608DE00E94EA0C83E30E94DF0C8AEF90E08F
S1131C700E94710C87E30E94DF0C8AEF90E00E94BF
S1131C80710C10923D0184E30E94DF0C0895CF9300
S1131C90DF9300D0CDB7DEB7BE016E5F7F4FCE01BC
S1131CA001960E940D0D8A818650823068F586E384
S1131CB00E94DF0C8DE30E94DF0C80E80E941A0D65
S1131CC080933F0181E80E941A0D8093400182E8CD
S1131CD00E941A0D8093410183E80E941A0D80939B
S1131CE0420184E80E941A0D8093430185E80E9412
S1131CF01A0D8093440181E080933D018AE30E94A0
S1131D00DF0C84E30E94DF0C0F900F90DF91CF91E2
S1131D100895EE0FFF1F0590F491E02D0994F894B7
S1051D20FFCFEF
S9030000FC
